{
  "contractName": "Sample",
  "abi": [
    {
      "constant": true,
      "inputs": [],
      "name": "pokes",
      "outputs": [
        {
          "name": "",
          "type": "uint256"
        }
      ],
      "payable": false,
      "stateMutability": "view",
      "type": "function",
      "signature": "0x8ac73305"
    },
    {
      "inputs": [],
      "payable": false,
      "stateMutability": "nonpayable",
      "type": "constructor",
      "signature": "constructor"
    },
    {
      "anonymous": false,
      "inputs": [
        {
          "indexed": false,
          "name": "",
          "type": "uint256"
        }
      ],
      "name": "Poked",
      "type": "event",
      "signature": "0xc2c24f29eda7b97be3182bcc7c0058a4e9f5ea6455e0f434ec01efecf0238802"
    },
    {
      "constant": false,
      "inputs": [],
      "name": "poke",
      "outputs": [],
      "payable": false,
      "stateMutability": "nonpayable",
      "type": "function",
      "signature": "0x18178358"
    },
    {
      "constant": false,
      "inputs": [
        {
          "name": "p",
          "type": "uint256"
        }
      ],
      "name": "poke2",
      "outputs": [],
      "payable": false,
      "stateMutability": "nonpayable",
      "type": "function",
      "signature": "0x839f093c"
    },
    {
      "constant": true,
      "inputs": [],
      "name": "getPokes",
      "outputs": [
        {
          "name": "",
          "type": "uint256"
        }
      ],
      "payable": false,
      "stateMutability": "view",
      "type": "function",
      "signature": "0xa19e6fa7"
    },
    {
      "constant": true,
      "inputs": [
        {
          "name": "p",
          "type": "uint256"
        }
      ],
      "name": "getPokes2",
      "outputs": [
        {
          "name": "",
          "type": "uint256"
        }
      ],
      "payable": false,
      "stateMutability": "pure",
      "type": "function",
      "signature": "0xac428442"
    }
  ],
  "bytecode": "0x608060405234801561001057600080fd5b50610238806100206000396000f3fe60806040526004361061006d576000357c0100000000000000000000000000000000000000000000000000000000900463ffffffff1680631817835814610072578063839f093c146100895780638ac73305146100c4578063a19e6fa7146100ef578063ac4284421461011a575b600080fd5b34801561007e57600080fd5b50610087610169565b005b34801561009557600080fd5b506100c2600480360360208110156100ac57600080fd5b81019080803590602001909291905050506101b0565b005b3480156100d057600080fd5b506100d96101f3565b6040518082815260200191505060405180910390f35b3480156100fb57600080fd5b506101046101f9565b6040518082815260200191505060405180910390f35b34801561012657600080fd5b506101536004803603602081101561013d57600080fd5b8101908080359060200190929190505050610202565b6040518082815260200191505060405180910390f35b6001600054016000819055507fc2c24f29eda7b97be3182bcc7c0058a4e9f5ea6455e0f434ec01efecf02388026000546040518082815260200191505060405180910390a1565b806000819055507fc2c24f29eda7b97be3182bcc7c0058a4e9f5ea6455e0f434ec01efecf02388026000546040518082815260200191505060405180910390a150565b60005481565b60008054905090565b600081905091905056fea165627a7a72305820e48c20487ab7bf0a116b79f6d7ac768a6a1b064c576c64cdf498fccf96834e080029",
  "source": "pragma solidity ^0.5.0;\n\n/**\n * The Sample contract does this and that...\n */\ncontract Sample {\n    constructor() public {}\n\n    uint public pokes;\n\n    event Poked(uint);\n\n    function poke() public {\n        pokes = pokes + 1;\n        emit Poked(pokes);\n    }\n\n    function poke2(uint p) public {\n        pokes = p;\n        emit Poked(pokes);\n    }\n\n    function getPokes() public view returns(uint) {\n        return pokes;\n    }\n    \n    function getPokes2(uint p) public pure returns(uint) {\n        return p;\n    }\n}\n",
  "sourcePath": "/Users/billy/sol/eth-dev-tools/contracts/Sample.sol",
  "compiler": {
    "name": "solc",
    "version": "0.5.0+commit.1d4f565a.Emscripten.clang"
  },
  "schemaVersion": "3.0.2",
  "updatedAt": "2019-02-16T05:24:22.701Z",
  "devdoc": {
    "methods": {}
  },
  "userdoc": {
    "methods": {},
    "notice": "The Sample contract does this and that..."
  }
}